{
  "contractName": "Cryptobillions",
  "abi": [
    {
      "inputs": [
        {
          "internalType": "address",
          "name": "ownerAddress",
          "type": "address"
        }
      ],
      "payable": false,
      "stateMutability": "nonpayable",
      "type": "constructor"
    },
    {
      "anonymous": false,
      "inputs": [
        {
          "indexed": true,
          "internalType": "address",
          "name": "receiver",
          "type": "address"
        },
        {
          "indexed": true,
          "internalType": "address",
          "name": "from",
          "type": "address"
        },
        {
          "indexed": false,
          "internalType": "uint8",
          "name": "matrix",
          "type": "uint8"
        },
        {
          "indexed": false,
          "internalType": "uint8",
          "name": "level",
          "type": "uint8"
        }
      ],
      "name": "MissedEthReceive",
      "type": "event"
    },
    {
      "anonymous": false,
      "inputs": [
        {
          "indexed": true,
          "internalType": "address",
          "name": "user",
          "type": "address"
        },
        {
          "indexed": true,
          "internalType": "address",
          "name": "referrer",
          "type": "address"
        },
        {
          "indexed": false,
          "internalType": "uint8",
          "name": "matrix",
          "type": "uint8"
        },
        {
          "indexed": false,
          "internalType": "uint8",
          "name": "level",
          "type": "uint8"
        },
        {
          "indexed": false,
          "internalType": "uint8",
          "name": "place",
          "type": "uint8"
        }
      ],
      "name": "NewUserPlace",
      "type": "event"
    },
    {
      "anonymous": false,
      "inputs": [
        {
          "indexed": true,
          "internalType": "address",
          "name": "user",
          "type": "address"
        },
        {
          "indexed": true,
          "internalType": "address",
          "name": "referrer",
          "type": "address"
        },
        {
          "indexed": true,
          "internalType": "uint256",
          "name": "userId",
          "type": "uint256"
        },
        {
          "indexed": false,
          "internalType": "uint256",
          "name": "referrerId",
          "type": "uint256"
        }
      ],
      "name": "Registration",
      "type": "event"
    },
    {
      "anonymous": false,
      "inputs": [
        {
          "indexed": true,
          "internalType": "address",
          "name": "user",
          "type": "address"
        },
        {
          "indexed": true,
          "internalType": "address",
          "name": "currentReferrer",
          "type": "address"
        },
        {
          "indexed": true,
          "internalType": "address",
          "name": "caller",
          "type": "address"
        },
        {
          "indexed": false,
          "internalType": "uint8",
          "name": "matrix",
          "type": "uint8"
        },
        {
          "indexed": false,
          "internalType": "uint8",
          "name": "level",
          "type": "uint8"
        }
      ],
      "name": "Reinvest",
      "type": "event"
    },
    {
      "anonymous": false,
      "inputs": [
        {
          "indexed": true,
          "internalType": "address",
          "name": "from",
          "type": "address"
        },
        {
          "indexed": true,
          "internalType": "address",
          "name": "receiver",
          "type": "address"
        },
        {
          "indexed": false,
          "internalType": "uint8",
          "name": "matrix",
          "type": "uint8"
        },
        {
          "indexed": false,
          "internalType": "uint8",
          "name": "level",
          "type": "uint8"
        }
      ],
      "name": "SentExtraEthDividends",
      "type": "event"
    },
    {
      "anonymous": false,
      "inputs": [
        {
          "indexed": true,
          "internalType": "address",
          "name": "user",
          "type": "address"
        },
        {
          "indexed": true,
          "internalType": "address",
          "name": "referrer",
          "type": "address"
        },
        {
          "indexed": false,
          "internalType": "uint8",
          "name": "matrix",
          "type": "uint8"
        },
        {
          "indexed": false,
          "internalType": "uint8",
          "name": "level",
          "type": "uint8"
        }
      ],
      "name": "Upgrade",
      "type": "event"
    },
    {
      "payable": true,
      "stateMutability": "payable",
      "type": "fallback"
    },
    {
      "constant": true,
      "inputs": [],
      "name": "LAST_LEVEL",
      "outputs": [
        {
          "internalType": "uint8",
          "name": "",
          "type": "uint8"
        }
      ],
      "payable": false,
      "stateMutability": "view",
      "type": "function"
    },
    {
      "constant": true,
      "inputs": [
        {
          "internalType": "address",
          "name": "",
          "type": "address"
        }
      ],
      "name": "balances",
      "outputs": [
        {
          "internalType": "uint256",
          "name": "",
          "type": "uint256"
        }
      ],
      "payable": false,
      "stateMutability": "view",
      "type": "function"
    },
    {
      "constant": true,
      "inputs": [
        {
          "internalType": "uint256",
          "name": "",
          "type": "uint256"
        }
      ],
      "name": "idToAddress",
      "outputs": [
        {
          "internalType": "address",
          "name": "",
          "type": "address"
        }
      ],
      "payable": false,
      "stateMutability": "view",
      "type": "function"
    },
    {
      "constant": true,
      "inputs": [],
      "name": "lastUserId",
      "outputs": [
        {
          "internalType": "uint256",
          "name": "",
          "type": "uint256"
        }
      ],
      "payable": false,
      "stateMutability": "view",
      "type": "function"
    },
    {
      "constant": true,
      "inputs": [
        {
          "internalType": "uint8",
          "name": "",
          "type": "uint8"
        }
      ],
      "name": "levelPrice",
      "outputs": [
        {
          "internalType": "uint256",
          "name": "",
          "type": "uint256"
        }
      ],
      "payable": false,
      "stateMutability": "view",
      "type": "function"
    },
    {
      "constant": true,
      "inputs": [],
      "name": "owner",
      "outputs": [
        {
          "internalType": "address",
          "name": "",
          "type": "address"
        }
      ],
      "payable": false,
      "stateMutability": "view",
      "type": "function"
    },
    {
      "constant": true,
      "inputs": [
        {
          "internalType": "uint256",
          "name": "",
          "type": "uint256"
        }
      ],
      "name": "userIds",
      "outputs": [
        {
          "internalType": "address",
          "name": "",
          "type": "address"
        }
      ],
      "payable": false,
      "stateMutability": "view",
      "type": "function"
    },
    {
      "constant": true,
      "inputs": [
        {
          "internalType": "address",
          "name": "",
          "type": "address"
        }
      ],
      "name": "users",
      "outputs": [
        {
          "internalType": "uint256",
          "name": "id",
          "type": "uint256"
        },
        {
          "internalType": "address",
          "name": "referrer",
          "type": "address"
        },
        {
          "internalType": "uint256",
          "name": "partnersCount",
          "type": "uint256"
        }
      ],
      "payable": false,
      "stateMutability": "view",
      "type": "function"
    },
    {
      "constant": false,
      "inputs": [
        {
          "internalType": "address",
          "name": "referrerAddress",
          "type": "address"
        }
      ],
      "name": "registrationExt",
      "outputs": [],
      "payable": true,
      "stateMutability": "payable",
      "type": "function"
    },
    {
      "constant": false,
      "inputs": [
        {
          "internalType": "uint8",
          "name": "matrix",
          "type": "uint8"
        },
        {
          "internalType": "uint8",
          "name": "level",
          "type": "uint8"
        }
      ],
      "name": "buyNewLevel",
      "outputs": [],
      "payable": true,
      "stateMutability": "payable",
      "type": "function"
    },
    {
      "constant": true,
      "inputs": [
        {
          "internalType": "address",
          "name": "userAddress",
          "type": "address"
        },
        {
          "internalType": "uint8",
          "name": "level",
          "type": "uint8"
        }
      ],
      "name": "findFreeX3Referrer",
      "outputs": [
        {
          "internalType": "address",
          "name": "",
          "type": "address"
        }
      ],
      "payable": false,
      "stateMutability": "view",
      "type": "function"
    },
    {
      "constant": true,
      "inputs": [
        {
          "internalType": "address",
          "name": "userAddress",
          "type": "address"
        },
        {
          "internalType": "uint8",
          "name": "level",
          "type": "uint8"
        }
      ],
      "name": "findFreeX6Referrer",
      "outputs": [
        {
          "internalType": "address",
          "name": "",
          "type": "address"
        }
      ],
      "payable": false,
      "stateMutability": "view",
      "type": "function"
    },
    {
      "constant": true,
      "inputs": [
        {
          "internalType": "address",
          "name": "userAddress",
          "type": "address"
        },
        {
          "internalType": "uint8",
          "name": "level",
          "type": "uint8"
        }
      ],
      "name": "usersActiveX3Levels",
      "outputs": [
        {
          "internalType": "bool",
          "name": "",
          "type": "bool"
        }
      ],
      "payable": false,
      "stateMutability": "view",
      "type": "function"
    },
    {
      "constant": true,
      "inputs": [
        {
          "internalType": "address",
          "name": "userAddress",
          "type": "address"
        },
        {
          "internalType": "uint8",
          "name": "level",
          "type": "uint8"
        }
      ],
      "name": "usersActiveX6Levels",
      "outputs": [
        {
          "internalType": "bool",
          "name": "",
          "type": "bool"
        }
      ],
      "payable": false,
      "stateMutability": "view",
      "type": "function"
    },
    {
      "constant": true,
      "inputs": [
        {
          "internalType": "address",
          "name": "userAddress",
          "type": "address"
        },
        {
          "internalType": "uint8",
          "name": "level",
          "type": "uint8"
        }
      ],
      "name": "usersX3Matrix",
      "outputs": [
        {
          "internalType": "address",
          "name": "",
          "type": "address"
        },
        {
          "internalType": "address[]",
          "name": "",
          "type": "address[]"
        },
        {
          "internalType": "bool",
          "name": "",
          "type": "bool"
        }
      ],
      "payable": false,
      "stateMutability": "view",
      "type": "function"
    },
    {
      "constant": true,
      "inputs": [
        {
          "internalType": "address",
          "name": "userAddress",
          "type": "address"
        },
        {
          "internalType": "uint8",
          "name": "level",
          "type": "uint8"
        }
      ],
      "name": "usersX6Matrix",
      "outputs": [
        {
          "internalType": "address",
          "name": "",
          "type": "address"
        },
        {
          "internalType": "address[]",
          "name": "",
          "type": "address[]"
        },
        {
          "internalType": "address[]",
          "name": "",
          "type": "address[]"
        },
        {
          "internalType": "bool",
          "name": "",
          "type": "bool"
        },
        {
          "internalType": "address",
          "name": "",
          "type": "address"
        }
      ],
      "payable": false,
      "stateMutability": "view",
      "type": "function"
    },
    {
      "constant": true,
      "inputs": [
        {
          "internalType": "address",
          "name": "user",
          "type": "address"
        }
      ],
      "name": "isUserExists",
      "outputs": [
        {
          "internalType": "bool",
          "name": "",
          "type": "bool"
        }
      ],
      "payable": false,
      "stateMutability": "view",
      "type": "function"
    }
  ],
  "bytecode": "0x608060405260026004553480156200001657600080fd5b50604051620062f4380380620062f4833981810160405260208110156200003c57600080fd5b8101908080519060200190929190505050669fdf42f6e4800060066000600160ff168152602001908152602001600020819055506000600290505b600960ff168160ff1611620000d1576002600660006001840360ff1660ff1681526020019081526020016000205402600660008360ff1660ff16815260200190815260200160002081905550808060010191505062000077565b5080600560006101000a81548173ffffffffffffffffffffffffffffffffffffffff021916908373ffffffffffffffffffffffffffffffffffffffff1602179055506200011d620003a5565b604051806060016040528060018152602001600073ffffffffffffffffffffffffffffffffffffffff16815260200160008152509050806000808473ffffffffffffffffffffffffffffffffffffffff1673ffffffffffffffffffffffffffffffffffffffff1681526020019081526020016000206000820151816000015560208201518160010160006101000a81548173ffffffffffffffffffffffffffffffffffffffff021916908373ffffffffffffffffffffffffffffffffffffffff1602179055506040820151816002015590505081600160006001815260200190815260200160002060006101000a81548173ffffffffffffffffffffffffffffffffffffffff021916908373ffffffffffffffffffffffffffffffffffffffff1602179055506000600190505b600960ff168160ff1611620003495760016000808573ffffffffffffffffffffffffffffffffffffffff1673ffffffffffffffffffffffffffffffffffffffff16815260200190815260200160002060030160008360ff1660ff16815260200190815260200160002060006101000a81548160ff02191690831515021790555060016000808573ffffffffffffffffffffffffffffffffffffffff1673ffffffffffffffffffffffffffffffffffffffff16815260200190815260200160002060040160008360ff1660ff16815260200190815260200160002060006101000a81548160ff02191690831515021790555080806001019150506200024a565b5081600260006001815260200190815260200160002060006101000a81548173ffffffffffffffffffffffffffffffffffffffff021916908373ffffffffffffffffffffffffffffffffffffffff1602179055505050620003dc565b604051806060016040528060008152602001600073ffffffffffffffffffffffffffffffffffffffff168152602001600081525090565b615f0880620003ec6000396000f3fe6080604052600436106100fe5760003560e01c806383ba31b211610095578063b2f7543a11610064578063b2f7543a146107c2578063be389d5714610838578063e06e8dbd14610876578063ecabdf7914610914578063fa45323d14610966576100fe565b806383ba31b21461046f5780638da5cb5b146105605780639cc102fc146105b7578063a87430ba14610723576100fe565b8063348d4487116100d1578063348d44871461031c5780634635fd6814610347578063509222cd146103c2578063797eee241461042b576100fe565b806307279e2a1461019557806327e235e31461020b57806329c70400146102705780632a2d0c47146102a1575b600080369050141561013b5761013633600560009054906101000a900473ffffffffffffffffffffffffffffffffffffffff16610a04565b610193565b6101923361018d6000368080601f016020809104026020016040519081016040528093929190818152602001838380828437600081840152601f19601f820116905080830192505050505050506110f6565b610a04565b5b005b3480156101a157600080fd5b506101f1600480360360408110156101b857600080fd5b81019080803573ffffffffffffffffffffffffffffffffffffffff169060200190929190803560ff169060200190929190505050611104565b604051808215151515815260200191505060405180910390f35b34801561021757600080fd5b5061025a6004803603602081101561022e57600080fd5b81019080803573ffffffffffffffffffffffffffffffffffffffff169060200190929190505050611174565b6040518082815260200191505060405180910390f35b34801561027c57600080fd5b5061028561118c565b604051808260ff1660ff16815260200191505060405180910390f35b3480156102ad57600080fd5b506102da600480360360208110156102c457600080fd5b8101908080359060200190929190505050611191565b604051808273ffffffffffffffffffffffffffffffffffffffff1673ffffffffffffffffffffffffffffffffffffffff16815260200191505060405180910390f35b34801561032857600080fd5b506103316111c4565b6040518082815260200191505060405180910390f35b34801561035357600080fd5b506103806004803603602081101561036a57600080fd5b81019080803590602001909291905050506111ca565b604051808273ffffffffffffffffffffffffffffffffffffffff1673ffffffffffffffffffffffffffffffffffffffff16815260200191505060405180910390f35b3480156103ce57600080fd5b50610411600480360360208110156103e557600080fd5b81019080803573ffffffffffffffffffffffffffffffffffffffff1690602001909291905050506111fd565b604051808215151515815260200191505060405180910390f35b61046d6004803603602081101561044157600080fd5b81019080803573ffffffffffffffffffffffffffffffffffffffff16906020019092919050505061124b565b005b34801561047b57600080fd5b506104cb6004803603604081101561049257600080fd5b81019080803573ffffffffffffffffffffffffffffffffffffffff169060200190929190803560ff169060200190929190505050611258565b604051808473ffffffffffffffffffffffffffffffffffffffff1673ffffffffffffffffffffffffffffffffffffffff1681526020018060200183151515158152602001828103825284818151815260200191508051906020019060200280838360005b8381101561054a57808201518184015260208101905061052f565b5050505090500194505050505060405180910390f35b34801561056c57600080fd5b50610575611433565b604051808273ffffffffffffffffffffffffffffffffffffffff1673ffffffffffffffffffffffffffffffffffffffff16815260200191505060405180910390f35b3480156105c357600080fd5b50610613600480360360408110156105da57600080fd5b81019080803573ffffffffffffffffffffffffffffffffffffffff169060200190929190803560ff169060200190929190505050611459565b604051808673ffffffffffffffffffffffffffffffffffffffff1673ffffffffffffffffffffffffffffffffffffffff1681526020018060200180602001851515151581526020018473ffffffffffffffffffffffffffffffffffffffff1673ffffffffffffffffffffffffffffffffffffffff168152602001838103835287818151815260200191508051906020019060200280838360005b838110156106c85780820151818401526020810190506106ad565b50505050905001838103825286818151815260200191508051906020019060200280838360005b8381101561070a5780820151818401526020810190506106ef565b5050505090500197505050505050505060405180910390f35b34801561072f57600080fd5b506107726004803603602081101561074657600080fd5b81019080803573ffffffffffffffffffffffffffffffffffffffff16906020019092919050505061179c565b604051808481526020018373ffffffffffffffffffffffffffffffffffffffff1673ffffffffffffffffffffffffffffffffffffffff168152602001828152602001935050505060405180910390f35b3480156107ce57600080fd5b5061081e600480360360408110156107e557600080fd5b81019080803573ffffffffffffffffffffffffffffffffffffffff169060200190929190803560ff1690602001909291905050506117e6565b604051808215151515815260200191505060405180910390f35b6108746004803603604081101561084e57600080fd5b81019080803560ff169060200190929190803560ff169060200190929190505050611856565b005b34801561088257600080fd5b506108d26004803603604081101561089957600080fd5b81019080803573ffffffffffffffffffffffffffffffffffffffff169060200190929190803560ff16906020019092919050505061208d565b604051808273ffffffffffffffffffffffffffffffffffffffff1673ffffffffffffffffffffffffffffffffffffffff16815260200191505060405180910390f35b34801561092057600080fd5b506109506004803603602081101561093757600080fd5b81019080803560ff16906020019092919050505061223c565b6040518082815260200191505060405180910390f35b34801561097257600080fd5b506109c26004803603604081101561098957600080fd5b81019080803573ffffffffffffffffffffffffffffffffffffffff169060200190929190803560ff169060200190929190505050612254565b604051808273ffffffffffffffffffffffffffffffffffffffff1673ffffffffffffffffffffffffffffffffffffffff16815260200191505060405180910390f35b67013fbe85edc900003414610a81576040517f08c379a00000000000000000000000000000000000000000000000000000000081526004018080602001828103825260168152602001807f726567697374726174696f6e20636f737420302e30390000000000000000000081525060200191505060405180910390fd5b610a8a826111fd565b15610afd576040517f08c379a000000000000000000000000000000000000000000000000000000000815260040180806020018281038252600b8152602001807f757365722065786973747300000000000000000000000000000000000000000081525060200191505060405180910390fd5b610b06816111fd565b610b78576040517f08c379a00000000000000000000000000000000000000000000000000000000081526004018080602001828103825260138152602001807f7265666572726572206e6f74206578697374730000000000000000000000000081525060200191505060405180910390fd5b6000823b905060008163ffffffff1614610bfa576040517f08c379a00000000000000000000000000000000000000000000000000000000081526004018080602001828103825260148152602001807f63616e6e6f74206265206120636f6e747261637400000000000000000000000081525060200191505060405180910390fd5b610c02615dac565b604051806060016040528060045481526020018473ffffffffffffffffffffffffffffffffffffffff16815260200160008152509050806000808673ffffffffffffffffffffffffffffffffffffffff1673ffffffffffffffffffffffffffffffffffffffff1681526020019081526020016000206000820151816000015560208201518160010160006101000a81548173ffffffffffffffffffffffffffffffffffffffff021916908373ffffffffffffffffffffffffffffffffffffffff160217905550604082015181600201559050508360016000600454815260200190815260200160002060006101000a81548173ffffffffffffffffffffffffffffffffffffffff021916908373ffffffffffffffffffffffffffffffffffffffff160217905550826000808673ffffffffffffffffffffffffffffffffffffffff1673ffffffffffffffffffffffffffffffffffffffff16815260200190815260200160002060010160006101000a81548173ffffffffffffffffffffffffffffffffffffffff021916908373ffffffffffffffffffffffffffffffffffffffff16021790555060016000808673ffffffffffffffffffffffffffffffffffffffff1673ffffffffffffffffffffffffffffffffffffffff1681526020019081526020016000206003016000600160ff16815260200190815260200160002060006101000a81548160ff02191690831515021790555060016000808673ffffffffffffffffffffffffffffffffffffffff1673ffffffffffffffffffffffffffffffffffffffff1681526020019081526020016000206004016000600160ff16815260200190815260200160002060006101000a81548160ff0219169083151502179055508360026000600454815260200190815260200160002060006101000a81548173ffffffffffffffffffffffffffffffffffffffff021916908373ffffffffffffffffffffffffffffffffffffffff1602179055506004600081548092919060010191905055506000808473ffffffffffffffffffffffffffffffffffffffff1673ffffffffffffffffffffffffffffffffffffffff168152602001908152602001600020600201600081548092919060010191905055506000610f4b856001612254565b9050806000808773ffffffffffffffffffffffffffffffffffffffff1673ffffffffffffffffffffffffffffffffffffffff1681526020019081526020016000206005016000600160ff16815260200190815260200160002060000160006101000a81548173ffffffffffffffffffffffffffffffffffffffff021916908373ffffffffffffffffffffffffffffffffffffffff160217905550610ff185826001612403565b6110078561100087600161208d565b6001612c62565b6000808673ffffffffffffffffffffffffffffffffffffffff1673ffffffffffffffffffffffffffffffffffffffff168152602001908152602001600020600001548473ffffffffffffffffffffffffffffffffffffffff168673ffffffffffffffffffffffffffffffffffffffff167f309bb360e8b69c23937ccc5fb01f9aeeead1c95a99604e175113ff82f2b1723a6000808973ffffffffffffffffffffffffffffffffffffffff1673ffffffffffffffffffffffffffffffffffffffff168152602001908152602001600020600001546040518082815260200191505060405180910390a45050505050565b600060148201519050919050565b60008060008473ffffffffffffffffffffffffffffffffffffffff1673ffffffffffffffffffffffffffffffffffffffff16815260200190815260200160002060030160008360ff1660ff16815260200190815260200160002060009054906101000a900460ff16905092915050565b60036020528060005260406000206000915090505481565b600981565b60016020528060005260406000206000915054906101000a900473ffffffffffffffffffffffffffffffffffffffff1681565b60045481565b60026020528060005260406000206000915054906101000a900473ffffffffffffffffffffffffffffffffffffffff1681565b6000806000808473ffffffffffffffffffffffffffffffffffffffff1673ffffffffffffffffffffffffffffffffffffffff1681526020019081526020016000206000015414159050919050565b6112553382610a04565b50565b6000606060008060008673ffffffffffffffffffffffffffffffffffffffff1673ffffffffffffffffffffffffffffffffffffffff16815260200190815260200160002060050160008560ff1660ff16815260200190815260200160002060000160009054906101000a900473ffffffffffffffffffffffffffffffffffffffff166000808773ffffffffffffffffffffffffffffffffffffffff1673ffffffffffffffffffffffffffffffffffffffff16815260200190815260200160002060050160008660ff1660ff1681526020019081526020016000206001016000808873ffffffffffffffffffffffffffffffffffffffff1673ffffffffffffffffffffffffffffffffffffffff16815260200190815260200160002060050160008760ff1660ff16815260200190815260200160002060020160009054906101000a900460ff168180548060200260200160405190810160405280929190818152602001828054801561141f57602002820191906000526020600020905b8160009054906101000a900473ffffffffffffffffffffffffffffffffffffffff1673ffffffffffffffffffffffffffffffffffffffff16815260200190600101908083116113d5575b505050505091509250925092509250925092565b600560009054906101000a900473ffffffffffffffffffffffffffffffffffffffff1681565b60006060806000806000808873ffffffffffffffffffffffffffffffffffffffff1673ffffffffffffffffffffffffffffffffffffffff16815260200190815260200160002060060160008760ff1660ff16815260200190815260200160002060000160009054906101000a900473ffffffffffffffffffffffffffffffffffffffff166000808973ffffffffffffffffffffffffffffffffffffffff1673ffffffffffffffffffffffffffffffffffffffff16815260200190815260200160002060060160008860ff1660ff1681526020019081526020016000206001016000808a73ffffffffffffffffffffffffffffffffffffffff1673ffffffffffffffffffffffffffffffffffffffff16815260200190815260200160002060060160008960ff1660ff1681526020019081526020016000206002016000808b73ffffffffffffffffffffffffffffffffffffffff1673ffffffffffffffffffffffffffffffffffffffff16815260200190815260200160002060060160008a60ff1660ff16815260200190815260200160002060030160009054906101000a900460ff166000808c73ffffffffffffffffffffffffffffffffffffffff1673ffffffffffffffffffffffffffffffffffffffff16815260200190815260200160002060060160008b60ff1660ff16815260200190815260200160002060050160009054906101000a900473ffffffffffffffffffffffffffffffffffffffff16838054806020026020016040519081016040528092919081815260200182805480156116f957602002820191906000526020600020905b8160009054906101000a900473ffffffffffffffffffffffffffffffffffffffff1673ffffffffffffffffffffffffffffffffffffffff16815260200190600101908083116116af575b505050505093508280548060200260200160405190810160405280929190818152602001828054801561178157602002820191906000526020600020905b8160009054906101000a900473ffffffffffffffffffffffffffffffffffffffff1673ffffffffffffffffffffffffffffffffffffffff1681526020019060010190808311611737575b50505050509250945094509450945094509295509295909350565b60006020528060005260406000206000915090508060000154908060010160009054906101000a900473ffffffffffffffffffffffffffffffffffffffff16908060020154905083565b60008060008473ffffffffffffffffffffffffffffffffffffffff1673ffffffffffffffffffffffffffffffffffffffff16815260200190815260200160002060040160008360ff1660ff16815260200190815260200160002060009054906101000a900460ff16905092915050565b61185f336111fd565b6118b4576040517f08c379a0000000000000000000000000000000000000000000000000000000008152600401808060200182810382526023815260200180615eb16023913960400191505060405180910390fd5b60018260ff1614806118c9575060028260ff16145b61193b576040517f08c379a000000000000000000000000000000000000000000000000000000000815260040180806020018281038252600e8152602001807f696e76616c6964206d617472697800000000000000000000000000000000000081525060200191505060405180910390fd5b600660008260ff1660ff1681526020019081526020016000205434146119c9576040517f08c379a000000000000000000000000000000000000000000000000000000000815260040180806020018281038252600d8152602001807f696e76616c69642070726963650000000000000000000000000000000000000081525060200191505060405180910390fd5b60018160ff161180156119e35750600960ff168160ff1611155b611a55576040517f08c379a000000000000000000000000000000000000000000000000000000000815260040180806020018281038252600d8152602001807f696e76616c6964206c6576656c0000000000000000000000000000000000000081525060200191505060405180910390fd5b60018260ff161415611dc4576000803373ffffffffffffffffffffffffffffffffffffffff1673ffffffffffffffffffffffffffffffffffffffff16815260200190815260200160002060030160008260ff1660ff16815260200190815260200160002060009054906101000a900460ff1615611b3a576040517f08c379a00000000000000000000000000000000000000000000000000000000081526004018080602001828103825260178152602001807f6c6576656c20616c72656164792061637469766174656400000000000000000081525060200191505060405180910390fd5b6000803373ffffffffffffffffffffffffffffffffffffffff1673ffffffffffffffffffffffffffffffffffffffff16815260200190815260200160002060050160006001830360ff1660ff16815260200190815260200160002060020160009054906101000a900460ff1615611c235760008060003373ffffffffffffffffffffffffffffffffffffffff1673ffffffffffffffffffffffffffffffffffffffff16815260200190815260200160002060050160006001840360ff1660ff16815260200190815260200160002060020160006101000a81548160ff0219169083151502179055505b6000611c2f3383612254565b9050806000803373ffffffffffffffffffffffffffffffffffffffff1673ffffffffffffffffffffffffffffffffffffffff16815260200190815260200160002060050160008460ff1660ff16815260200190815260200160002060000160006101000a81548173ffffffffffffffffffffffffffffffffffffffff021916908373ffffffffffffffffffffffffffffffffffffffff16021790555060016000803373ffffffffffffffffffffffffffffffffffffffff1673ffffffffffffffffffffffffffffffffffffffff16815260200190815260200160002060030160008460ff1660ff16815260200190815260200160002060006101000a81548160ff021916908315150217905550611d47338284612403565b8073ffffffffffffffffffffffffffffffffffffffff163373ffffffffffffffffffffffffffffffffffffffff167f18a92df19fd94d6cfff209966673a5ca05a1c8e2bb68e097fce2bdc2ed811119600185604051808360ff1681526020018260ff1660ff1681526020019250505060405180910390a350612089565b6000803373ffffffffffffffffffffffffffffffffffffffff1673ffffffffffffffffffffffffffffffffffffffff16815260200190815260200160002060040160008260ff1660ff16815260200190815260200160002060009054906101000a900460ff1615611e9d576040517f08c379a00000000000000000000000000000000000000000000000000000000081526004018080602001828103825260178152602001807f6c6576656c20616c72656164792061637469766174656400000000000000000081525060200191505060405180910390fd5b6000803373ffffffffffffffffffffffffffffffffffffffff1673ffffffffffffffffffffffffffffffffffffffff16815260200190815260200160002060060160006001830360ff1660ff16815260200190815260200160002060030160009054906101000a900460ff1615611f865760008060003373ffffffffffffffffffffffffffffffffffffffff1673ffffffffffffffffffffffffffffffffffffffff16815260200190815260200160002060060160006001840360ff1660ff16815260200190815260200160002060030160006101000a81548160ff0219169083151502179055505b6000611f92338361208d565b905060016000803373ffffffffffffffffffffffffffffffffffffffff1673ffffffffffffffffffffffffffffffffffffffff16815260200190815260200160002060040160008460ff1660ff16815260200190815260200160002060006101000a81548160ff021916908315150217905550612010338284612c62565b8073ffffffffffffffffffffffffffffffffffffffff163373ffffffffffffffffffffffffffffffffffffffff167f18a92df19fd94d6cfff209966673a5ca05a1c8e2bb68e097fce2bdc2ed811119600285604051808360ff1681526020018260ff1660ff1681526020019250505060405180910390a3505b5050565b60005b600115612235576000808060008673ffffffffffffffffffffffffffffffffffffffff1673ffffffffffffffffffffffffffffffffffffffff16815260200190815260200160002060010160009054906101000a900473ffffffffffffffffffffffffffffffffffffffff1673ffffffffffffffffffffffffffffffffffffffff1673ffffffffffffffffffffffffffffffffffffffff16815260200190815260200160002060040160008360ff1660ff16815260200190815260200160002060009054906101000a900460ff16156121cc576000808473ffffffffffffffffffffffffffffffffffffffff1673ffffffffffffffffffffffffffffffffffffffff16815260200190815260200160002060010160009054906101000a900473ffffffffffffffffffffffffffffffffffffffff169050612236565b6000808473ffffffffffffffffffffffffffffffffffffffff1673ffffffffffffffffffffffffffffffffffffffff16815260200190815260200160002060010160009054906101000a900473ffffffffffffffffffffffffffffffffffffffff169250612090565b5b92915050565b60066020528060005260406000206000915090505481565b60005b6001156123fc576000808060008673ffffffffffffffffffffffffffffffffffffffff1673ffffffffffffffffffffffffffffffffffffffff16815260200190815260200160002060010160009054906101000a900473ffffffffffffffffffffffffffffffffffffffff1673ffffffffffffffffffffffffffffffffffffffff1673ffffffffffffffffffffffffffffffffffffffff16815260200190815260200160002060030160008360ff1660ff16815260200190815260200160002060009054906101000a900460ff1615612393576000808473ffffffffffffffffffffffffffffffffffffffff1673ffffffffffffffffffffffffffffffffffffffff16815260200190815260200160002060010160009054906101000a900473ffffffffffffffffffffffffffffffffffffffff1690506123fd565b6000808473ffffffffffffffffffffffffffffffffffffffff1673ffffffffffffffffffffffffffffffffffffffff16815260200190815260200160002060010160009054906101000a900473ffffffffffffffffffffffffffffffffffffffff169250612257565b5b92915050565b6000808373ffffffffffffffffffffffffffffffffffffffff1673ffffffffffffffffffffffffffffffffffffffff16815260200190815260200160002060050160008260ff1660ff1681526020019081526020016000206001018390806001815401808255809150509060018203906000526020600020016000909192909190916101000a81548173ffffffffffffffffffffffffffffffffffffffff021916908373ffffffffffffffffffffffffffffffffffffffff1602179055505060036000808473ffffffffffffffffffffffffffffffffffffffff1673ffffffffffffffffffffffffffffffffffffffff16815260200190815260200160002060050160008360ff1660ff16815260200190815260200160002060010180549050101561261e578173ffffffffffffffffffffffffffffffffffffffff168373ffffffffffffffffffffffffffffffffffffffff167f68062c5925c4317adf3a7095478d28b33fd8b41458bc7620b61bc46bf1b24d826001846000808873ffffffffffffffffffffffffffffffffffffffff1673ffffffffffffffffffffffffffffffffffffffff16815260200190815260200160002060050160008760ff1660ff16815260200190815260200160002060010180549050604051808460ff1681526020018360ff1660ff1681526020018260ff1660ff168152602001935050505060405180910390a3612619828460018461431d565b612c5d565b8173ffffffffffffffffffffffffffffffffffffffff168373ffffffffffffffffffffffffffffffffffffffff167f68062c5925c4317adf3a7095478d28b33fd8b41458bc7620b61bc46bf1b24d826001846003604051808460ff1681526020018360ff1660ff1681526020018260ff168152602001935050505060405180910390a360006040519080825280602002602001820160405280156126d15781602001602082028038833980820191505090505b506000808473ffffffffffffffffffffffffffffffffffffffff1673ffffffffffffffffffffffffffffffffffffffff16815260200190815260200160002060050160008360ff1660ff1681526020019081526020016000206001019080519060200190612740929190615de3565b506000808373ffffffffffffffffffffffffffffffffffffffff1673ffffffffffffffffffffffffffffffffffffffff16815260200190815260200160002060030160006001830160ff1660ff16815260200190815260200160002060009054906101000a900460ff161580156127be5750600960ff168160ff1614155b156128385760016000808473ffffffffffffffffffffffffffffffffffffffff1673ffffffffffffffffffffffffffffffffffffffff16815260200190815260200160002060050160008360ff1660ff16815260200190815260200160002060020160006101000a81548160ff0219169083151502179055505b600560009054906101000a900473ffffffffffffffffffffffffffffffffffffffff1673ffffffffffffffffffffffffffffffffffffffff168273ffffffffffffffffffffffffffffffffffffffff1614612aee5760006128998383612254565b90508073ffffffffffffffffffffffffffffffffffffffff166000808573ffffffffffffffffffffffffffffffffffffffff1673ffffffffffffffffffffffffffffffffffffffff16815260200190815260200160002060050160008460ff1660ff16815260200190815260200160002060000160009054906101000a900473ffffffffffffffffffffffffffffffffffffffff1673ffffffffffffffffffffffffffffffffffffffff16146129e457806000808573ffffffffffffffffffffffffffffffffffffffff1673ffffffffffffffffffffffffffffffffffffffff16815260200190815260200160002060050160008460ff1660ff16815260200190815260200160002060000160006101000a81548173ffffffffffffffffffffffffffffffffffffffff021916908373ffffffffffffffffffffffffffffffffffffffff1602179055505b6000808473ffffffffffffffffffffffffffffffffffffffff1673ffffffffffffffffffffffffffffffffffffffff16815260200190815260200160002060050160008360ff1660ff168152602001908152602001600020600301600081548092919060010191905055508373ffffffffffffffffffffffffffffffffffffffff168173ffffffffffffffffffffffffffffffffffffffff168473ffffffffffffffffffffffffffffffffffffffff167fa00c953eff38ec1b71e7fe060b2ab8df0bbe5354319fbdde4fbdafd6324386a6600186604051808360ff1681526020018260ff1660ff1681526020019250505060405180910390a4612ae8838284612403565b50612c5c565b612b1d600560009054906101000a900473ffffffffffffffffffffffffffffffffffffffff168460018461431d565b600080600560009054906101000a900473ffffffffffffffffffffffffffffffffffffffff1673ffffffffffffffffffffffffffffffffffffffff1673ffffffffffffffffffffffffffffffffffffffff16815260200190815260200160002060050160008260ff1660ff168152602001908152602001600020600301600081548092919060010191905055508273ffffffffffffffffffffffffffffffffffffffff16600073ffffffffffffffffffffffffffffffffffffffff16600560009054906101000a900473ffffffffffffffffffffffffffffffffffffffff1673ffffffffffffffffffffffffffffffffffffffff167fa00c953eff38ec1b71e7fe060b2ab8df0bbe5354319fbdde4fbdafd6324386a6600185604051808360ff1681526020018260ff1660ff1681526020019250505060405180910390a45b5b505050565b6000808373ffffffffffffffffffffffffffffffffffffffff1673ffffffffffffffffffffffffffffffffffffffff16815260200190815260200160002060040160008260ff1660ff16815260200190815260200160002060009054906101000a900460ff16612d3a576040517f08c379a000000000000000000000000000000000000000000000000000000000815260040180806020018281038252601f8152602001807f3530302e205265666572726572206c6576656c20697320696e6163746976650081525060200191505060405180910390fd5b60026000808473ffffffffffffffffffffffffffffffffffffffff1673ffffffffffffffffffffffffffffffffffffffff16815260200190815260200160002060060160008360ff1660ff1681526020019081526020016000206001018054905010156139a5576000808373ffffffffffffffffffffffffffffffffffffffff1673ffffffffffffffffffffffffffffffffffffffff16815260200190815260200160002060060160008260ff1660ff1681526020019081526020016000206001018390806001815401808255809150509060018203906000526020600020016000909192909190916101000a81548173ffffffffffffffffffffffffffffffffffffffff021916908373ffffffffffffffffffffffffffffffffffffffff160217905550508173ffffffffffffffffffffffffffffffffffffffff168373ffffffffffffffffffffffffffffffffffffffff167f68062c5925c4317adf3a7095478d28b33fd8b41458bc7620b61bc46bf1b24d826002846000808873ffffffffffffffffffffffffffffffffffffffff1673ffffffffffffffffffffffffffffffffffffffff16815260200190815260200160002060060160008760ff1660ff16815260200190815260200160002060010180549050604051808460ff1681526020018360ff1660ff1681526020018260ff1660ff168152602001935050505060405180910390a3816000808573ffffffffffffffffffffffffffffffffffffffff1673ffffffffffffffffffffffffffffffffffffffff16815260200190815260200160002060060160008360ff1660ff16815260200190815260200160002060000160006101000a81548173ffffffffffffffffffffffffffffffffffffffff021916908373ffffffffffffffffffffffffffffffffffffffff160217905550600560009054906101000a900473ffffffffffffffffffffffffffffffffffffffff1673ffffffffffffffffffffffffffffffffffffffff168273ffffffffffffffffffffffffffffffffffffffff16141561304557613040828460028461431d565b614318565b60008060008473ffffffffffffffffffffffffffffffffffffffff1673ffffffffffffffffffffffffffffffffffffffff16815260200190815260200160002060060160008360ff1660ff16815260200190815260200160002060000160009054906101000a900473ffffffffffffffffffffffffffffffffffffffff1690506000808273ffffffffffffffffffffffffffffffffffffffff1673ffffffffffffffffffffffffffffffffffffffff16815260200190815260200160002060060160008360ff1660ff1681526020019081526020016000206002018490806001815401808255809150509060018203906000526020600020016000909192909190916101000a81548173ffffffffffffffffffffffffffffffffffffffff021916908373ffffffffffffffffffffffffffffffffffffffff1602179055505060008060008373ffffffffffffffffffffffffffffffffffffffff1673ffffffffffffffffffffffffffffffffffffffff16815260200190815260200160002060060160008460ff1660ff1681526020019081526020016000206001018054905090506002811480156132b357508373ffffffffffffffffffffffffffffffffffffffff166000808473ffffffffffffffffffffffffffffffffffffffff1673ffffffffffffffffffffffffffffffffffffffff16815260200190815260200160002060060160008560ff1660ff16815260200190815260200160002060010160008154811061327057fe5b9060005260206000200160009054906101000a900473ffffffffffffffffffffffffffffffffffffffff1673ffffffffffffffffffffffffffffffffffffffff16145b801561337b57508373ffffffffffffffffffffffffffffffffffffffff166000808473ffffffffffffffffffffffffffffffffffffffff1673ffffffffffffffffffffffffffffffffffffffff16815260200190815260200160002060060160008560ff1660ff16815260200190815260200160002060010160018154811061333857fe5b9060005260206000200160009054906101000a900473ffffffffffffffffffffffffffffffffffffffff1673ffffffffffffffffffffffffffffffffffffffff16145b156134f85760016000808673ffffffffffffffffffffffffffffffffffffffff1673ffffffffffffffffffffffffffffffffffffffff16815260200190815260200160002060060160008560ff1660ff16815260200190815260200160002060010180549050141561346f578173ffffffffffffffffffffffffffffffffffffffff168573ffffffffffffffffffffffffffffffffffffffff167f68062c5925c4317adf3a7095478d28b33fd8b41458bc7620b61bc46bf1b24d826002866005604051808460ff1681526020018360ff1660ff1681526020018260ff168152602001935050505060405180910390a36134f3565b8173ffffffffffffffffffffffffffffffffffffffff168573ffffffffffffffffffffffffffffffffffffffff167f68062c5925c4317adf3a7095478d28b33fd8b41458bc7620b61bc46bf1b24d826002866006604051808460ff1681526020018360ff1660ff1681526020018260ff168152602001935050505060405180910390a35b613993565b60018114806135075750600281145b80156135cf57508373ffffffffffffffffffffffffffffffffffffffff166000808473ffffffffffffffffffffffffffffffffffffffff1673ffffffffffffffffffffffffffffffffffffffff16815260200190815260200160002060060160008560ff1660ff16815260200190815260200160002060010160008154811061358c57fe5b9060005260206000200160009054906101000a900473ffffffffffffffffffffffffffffffffffffffff1673ffffffffffffffffffffffffffffffffffffffff16145b1561374c5760016000808673ffffffffffffffffffffffffffffffffffffffff1673ffffffffffffffffffffffffffffffffffffffff16815260200190815260200160002060060160008560ff1660ff1681526020019081526020016000206001018054905014156136c3578173ffffffffffffffffffffffffffffffffffffffff168573ffffffffffffffffffffffffffffffffffffffff167f68062c5925c4317adf3a7095478d28b33fd8b41458bc7620b61bc46bf1b24d826002866003604051808460ff1681526020018360ff1660ff1681526020018260ff168152602001935050505060405180910390a3613747565b8173ffffffffffffffffffffffffffffffffffffffff168573ffffffffffffffffffffffffffffffffffffffff167f68062c5925c4317adf3a7095478d28b33fd8b41458bc7620b61bc46bf1b24d826002866004604051808460ff1681526020018360ff1660ff1681526020018260ff168152602001935050505060405180910390a35b613992565b60028114801561381857508373ffffffffffffffffffffffffffffffffffffffff166000808473ffffffffffffffffffffffffffffffffffffffff1673ffffffffffffffffffffffffffffffffffffffff16815260200190815260200160002060060160008560ff1660ff1681526020019081526020016000206001016001815481106137d557fe5b9060005260206000200160009054906101000a900473ffffffffffffffffffffffffffffffffffffffff1673ffffffffffffffffffffffffffffffffffffffff16145b156139915760016000808673ffffffffffffffffffffffffffffffffffffffff1673ffffffffffffffffffffffffffffffffffffffff16815260200190815260200160002060060160008560ff1660ff16815260200190815260200160002060010180549050141561390c578173ffffffffffffffffffffffffffffffffffffffff168573ffffffffffffffffffffffffffffffffffffffff167f68062c5925c4317adf3a7095478d28b33fd8b41458bc7620b61bc46bf1b24d826002866005604051808460ff1681526020018360ff1660ff1681526020018260ff168152602001935050505060405180910390a3613990565b8173ffffffffffffffffffffffffffffffffffffffff168573ffffffffffffffffffffffffffffffffffffffff167f68062c5925c4317adf3a7095478d28b33fd8b41458bc7620b61bc46bf1b24d826002866006604051808460ff1681526020018360ff1660ff1681526020018260ff168152602001935050505060405180910390a35b5b5b5b61399e858385614459565b5050614318565b6000808373ffffffffffffffffffffffffffffffffffffffff1673ffffffffffffffffffffffffffffffffffffffff16815260200190815260200160002060060160008260ff1660ff1681526020019081526020016000206002018390806001815401808255809150509060018203906000526020600020016000909192909190916101000a81548173ffffffffffffffffffffffffffffffffffffffff021916908373ffffffffffffffffffffffffffffffffffffffff16021790555050600073ffffffffffffffffffffffffffffffffffffffff166000808473ffffffffffffffffffffffffffffffffffffffff1673ffffffffffffffffffffffffffffffffffffffff16815260200190815260200160002060060160008360ff1660ff16815260200190815260200160002060050160009054906101000a900473ffffffffffffffffffffffffffffffffffffffff1673ffffffffffffffffffffffffffffffffffffffff1614613f43576000808373ffffffffffffffffffffffffffffffffffffffff1673ffffffffffffffffffffffffffffffffffffffff16815260200190815260200160002060060160008260ff1660ff168152602001908152602001600020600101600181548110613b7a57fe5b9060005260206000200160009054906101000a900473ffffffffffffffffffffffffffffffffffffffff1673ffffffffffffffffffffffffffffffffffffffff166000808473ffffffffffffffffffffffffffffffffffffffff1673ffffffffffffffffffffffffffffffffffffffff16815260200190815260200160002060060160008360ff1660ff168152602001908152602001600020600101600081548110613c2257fe5b9060005260206000200160009054906101000a900473ffffffffffffffffffffffffffffffffffffffff1673ffffffffffffffffffffffffffffffffffffffff16148015613da757506000808373ffffffffffffffffffffffffffffffffffffffff1673ffffffffffffffffffffffffffffffffffffffff16815260200190815260200160002060060160008260ff1660ff16815260200190815260200160002060050160009054906101000a900473ffffffffffffffffffffffffffffffffffffffff1673ffffffffffffffffffffffffffffffffffffffff166000808473ffffffffffffffffffffffffffffffffffffffff1673ffffffffffffffffffffffffffffffffffffffff16815260200190815260200160002060060160008360ff1660ff168152602001908152602001600020600101600081548110613d6457fe5b9060005260206000200160009054906101000a900473ffffffffffffffffffffffffffffffffffffffff1673ffffffffffffffffffffffffffffffffffffffff16145b15613dc957613db98383836001614e79565b613dc4838383614459565b614318565b6000808373ffffffffffffffffffffffffffffffffffffffff1673ffffffffffffffffffffffffffffffffffffffff16815260200190815260200160002060060160008260ff1660ff16815260200190815260200160002060050160009054906101000a900473ffffffffffffffffffffffffffffffffffffffff1673ffffffffffffffffffffffffffffffffffffffff166000808473ffffffffffffffffffffffffffffffffffffffff1673ffffffffffffffffffffffffffffffffffffffff16815260200190815260200160002060060160008360ff1660ff168152602001908152602001600020600101600081548110613ec257fe5b9060005260206000200160009054906101000a900473ffffffffffffffffffffffffffffffffffffffff1673ffffffffffffffffffffffffffffffffffffffff161415613f2657613f168383836001614e79565b613f21838383614459565b614318565b613f338383836000614e79565b613f3e838383614459565b614318565b8273ffffffffffffffffffffffffffffffffffffffff166000808473ffffffffffffffffffffffffffffffffffffffff1673ffffffffffffffffffffffffffffffffffffffff16815260200190815260200160002060060160008360ff1660ff168152602001908152602001600020600101600181548110613fc157fe5b9060005260206000200160009054906101000a900473ffffffffffffffffffffffffffffffffffffffff1673ffffffffffffffffffffffffffffffffffffffff161415614025576140158383836000614e79565b614020838383614459565b614318565b8273ffffffffffffffffffffffffffffffffffffffff166000808473ffffffffffffffffffffffffffffffffffffffff1673ffffffffffffffffffffffffffffffffffffffff16815260200190815260200160002060060160008360ff1660ff1681526020019081526020016000206001016000815481106140a357fe5b9060005260206000200160009054906101000a900473ffffffffffffffffffffffffffffffffffffffff1673ffffffffffffffffffffffffffffffffffffffff161415614107576140f78383836001614e79565b614102838383614459565b614318565b6000808060008573ffffffffffffffffffffffffffffffffffffffff1673ffffffffffffffffffffffffffffffffffffffff16815260200190815260200160002060060160008460ff1660ff16815260200190815260200160002060010160018154811061417157fe5b9060005260206000200160009054906101000a900473ffffffffffffffffffffffffffffffffffffffff1673ffffffffffffffffffffffffffffffffffffffff1673ffffffffffffffffffffffffffffffffffffffff16815260200190815260200160002060060160008260ff1660ff168152602001908152602001600020600101805490506000808060008673ffffffffffffffffffffffffffffffffffffffff1673ffffffffffffffffffffffffffffffffffffffff16815260200190815260200160002060060160008560ff1660ff16815260200190815260200160002060010160008154811061426157fe5b9060005260206000200160009054906101000a900473ffffffffffffffffffffffffffffffffffffffff1673ffffffffffffffffffffffffffffffffffffffff1673ffffffffffffffffffffffffffffffffffffffff16815260200190815260200160002060060160008360ff1660ff16815260200190815260200160002060010180549050116142fe576142f98383836000614e79565b61430c565b61430b8383836001614e79565b5b614317838383614459565b5b505050565b60008061432c86868686615a78565b915091508173ffffffffffffffffffffffffffffffffffffffff166108fc600660008660ff1660ff168152602001908152602001600020549081150290604051600060405180830381858888f193505050506143d0578173ffffffffffffffffffffffffffffffffffffffff166108fc479081150290604051600060405180830381858888f193505050501580156143c8573d6000803e3d6000fd5b505050614453565b8015614450578173ffffffffffffffffffffffffffffffffffffffff168573ffffffffffffffffffffffffffffffffffffffff167ff0ddc65c0d411f042f723dcfa1b7d13e85a35b7b70761d447c6500411cacf3288686604051808360ff1660ff1681526020018260ff1660ff1681526020019250505060405180910390a35b50505b50505050565b60046000808473ffffffffffffffffffffffffffffffffffffffff1673ffffffffffffffffffffffffffffffffffffffff16815260200190815260200160002060060160008360ff1660ff1681526020019081526020016000206002018054905010156144d2576144cd828460028461431d565b614e74565b60606000808060008673ffffffffffffffffffffffffffffffffffffffff1673ffffffffffffffffffffffffffffffffffffffff16815260200190815260200160002060060160008560ff1660ff16815260200190815260200160002060000160009054906101000a900473ffffffffffffffffffffffffffffffffffffffff1673ffffffffffffffffffffffffffffffffffffffff1673ffffffffffffffffffffffffffffffffffffffff16815260200190815260200160002060060160008360ff1660ff16815260200190815260200160002060010180548060200260200160405190810160405280929190818152602001828054801561462a57602002820191906000526020600020905b8160009054906101000a900473ffffffffffffffffffffffffffffffffffffffff1673ffffffffffffffffffffffffffffffffffffffff16815260200190600101908083116145e0575b50505050509050600281511415614952578273ffffffffffffffffffffffffffffffffffffffff168160008151811061465f57fe5b602002602001015173ffffffffffffffffffffffffffffffffffffffff1614806146c857508273ffffffffffffffffffffffffffffffffffffffff16816001815181106146a857fe5b602002602001015173ffffffffffffffffffffffffffffffffffffffff16145b156147e757826000808060008773ffffffffffffffffffffffffffffffffffffffff1673ffffffffffffffffffffffffffffffffffffffff16815260200190815260200160002060060160008660ff1660ff16815260200190815260200160002060000160009054906101000a900473ffffffffffffffffffffffffffffffffffffffff1673ffffffffffffffffffffffffffffffffffffffff1673ffffffffffffffffffffffffffffffffffffffff16815260200190815260200160002060060160008460ff1660ff16815260200190815260200160002060050160006101000a81548173ffffffffffffffffffffffffffffffffffffffff021916908373ffffffffffffffffffffffffffffffffffffffff160217905550614951565b600181511415614950578273ffffffffffffffffffffffffffffffffffffffff168160008151811061481557fe5b602002602001015173ffffffffffffffffffffffffffffffffffffffff16141561494f57826000808060008773ffffffffffffffffffffffffffffffffffffffff1673ffffffffffffffffffffffffffffffffffffffff16815260200190815260200160002060060160008660ff1660ff16815260200190815260200160002060000160009054906101000a900473ffffffffffffffffffffffffffffffffffffffff1673ffffffffffffffffffffffffffffffffffffffff1673ffffffffffffffffffffffffffffffffffffffff16815260200190815260200160002060060160008460ff1660ff16815260200190815260200160002060050160006101000a81548173ffffffffffffffffffffffffffffffffffffffff021916908373ffffffffffffffffffffffffffffffffffffffff1602179055505b5b5b5b60006040519080825280602002602001820160405280156149825781602001602082028038833980820191505090505b506000808573ffffffffffffffffffffffffffffffffffffffff1673ffffffffffffffffffffffffffffffffffffffff16815260200190815260200160002060060160008460ff1660ff16815260200190815260200160002060010190805190602001906149f1929190615de3565b506000604051908082528060200260200182016040528015614a225781602001602082028038833980820191505090505b506000808573ffffffffffffffffffffffffffffffffffffffff1673ffffffffffffffffffffffffffffffffffffffff16815260200190815260200160002060060160008460ff1660ff1681526020019081526020016000206002019080519060200190614a91929190615de3565b5060008060008573ffffffffffffffffffffffffffffffffffffffff1673ffffffffffffffffffffffffffffffffffffffff16815260200190815260200160002060060160008460ff1660ff16815260200190815260200160002060050160006101000a81548173ffffffffffffffffffffffffffffffffffffffff021916908373ffffffffffffffffffffffffffffffffffffffff1602179055506000808473ffffffffffffffffffffffffffffffffffffffff1673ffffffffffffffffffffffffffffffffffffffff16815260200190815260200160002060040160006001840160ff1660ff16815260200190815260200160002060009054906101000a900460ff16158015614baa5750600960ff168260ff1614155b15614c245760016000808573ffffffffffffffffffffffffffffffffffffffff1673ffffffffffffffffffffffffffffffffffffffff16815260200190815260200160002060060160008460ff1660ff16815260200190815260200160002060030160006101000a81548160ff0219169083151502179055505b6000808473ffffffffffffffffffffffffffffffffffffffff1673ffffffffffffffffffffffffffffffffffffffff16815260200190815260200160002060060160008360ff1660ff16815260200190815260200160002060040160008154809291906001019190505550600560009054906101000a900473ffffffffffffffffffffffffffffffffffffffff1673ffffffffffffffffffffffffffffffffffffffff168373ffffffffffffffffffffffffffffffffffffffff1614614d91576000614cf0848461208d565b90508473ffffffffffffffffffffffffffffffffffffffff168173ffffffffffffffffffffffffffffffffffffffff168573ffffffffffffffffffffffffffffffffffffffff167fa00c953eff38ec1b71e7fe060b2ab8df0bbe5354319fbdde4fbdafd6324386a6600287604051808360ff1681526020018260ff1660ff1681526020019250505060405180910390a4614d8b848285612c62565b50614e72565b8373ffffffffffffffffffffffffffffffffffffffff16600073ffffffffffffffffffffffffffffffffffffffff16600560009054906101000a900473ffffffffffffffffffffffffffffffffffffffff1673ffffffffffffffffffffffffffffffffffffffff167fa00c953eff38ec1b71e7fe060b2ab8df0bbe5354319fbdde4fbdafd6324386a6600286604051808360ff1681526020018260ff1660ff1681526020019250505060405180910390a4614e71600560009054906101000a900473ffffffffffffffffffffffffffffffffffffffff168560028561431d565b5b505b505050565b8061547a576000808060008673ffffffffffffffffffffffffffffffffffffffff1673ffffffffffffffffffffffffffffffffffffffff16815260200190815260200160002060060160008560ff1660ff168152602001908152602001600020600101600081548110614ee857fe5b9060005260206000200160009054906101000a900473ffffffffffffffffffffffffffffffffffffffff1673ffffffffffffffffffffffffffffffffffffffff1673ffffffffffffffffffffffffffffffffffffffff16815260200190815260200160002060060160008360ff1660ff1681526020019081526020016000206001018490806001815401808255809150509060018203906000526020600020016000909192909190916101000a81548173ffffffffffffffffffffffffffffffffffffffff021916908373ffffffffffffffffffffffffffffffffffffffff160217905550506000808473ffffffffffffffffffffffffffffffffffffffff1673ffffffffffffffffffffffffffffffffffffffff16815260200190815260200160002060060160008360ff1660ff16815260200190815260200160002060010160008154811061503557fe5b9060005260206000200160009054906101000a900473ffffffffffffffffffffffffffffffffffffffff1673ffffffffffffffffffffffffffffffffffffffff168473ffffffffffffffffffffffffffffffffffffffff167f68062c5925c4317adf3a7095478d28b33fd8b41458bc7620b61bc46bf1b24d826002856000808060008b73ffffffffffffffffffffffffffffffffffffffff1673ffffffffffffffffffffffffffffffffffffffff16815260200190815260200160002060060160008a60ff1660ff16815260200190815260200160002060010160008154811061511b57fe5b9060005260206000200160009054906101000a900473ffffffffffffffffffffffffffffffffffffffff1673ffffffffffffffffffffffffffffffffffffffff1673ffffffffffffffffffffffffffffffffffffffff16815260200190815260200160002060060160008860ff1660ff16815260200190815260200160002060010180549050604051808460ff1681526020018360ff1660ff1681526020018260ff1660ff168152602001935050505060405180910390a38273ffffffffffffffffffffffffffffffffffffffff168473ffffffffffffffffffffffffffffffffffffffff167f68062c5925c4317adf3a7095478d28b33fd8b41458bc7620b61bc46bf1b24d826002856000808060008b73ffffffffffffffffffffffffffffffffffffffff1673ffffffffffffffffffffffffffffffffffffffff16815260200190815260200160002060060160008a60ff1660ff16815260200190815260200160002060010160008154811061528f57fe5b9060005260206000200160009054906101000a900473ffffffffffffffffffffffffffffffffffffffff1673ffffffffffffffffffffffffffffffffffffffff1673ffffffffffffffffffffffffffffffffffffffff16815260200190815260200160002060060160008860ff1660ff16815260200190815260200160002060010180549050600201604051808460ff1681526020018360ff1660ff1681526020018260ff1660ff168152602001935050505060405180910390a36000808473ffffffffffffffffffffffffffffffffffffffff1673ffffffffffffffffffffffffffffffffffffffff16815260200190815260200160002060060160008360ff1660ff1681526020019081526020016000206001016000815481106153b157fe5b9060005260206000200160009054906101000a900473ffffffffffffffffffffffffffffffffffffffff166000808673ffffffffffffffffffffffffffffffffffffffff1673ffffffffffffffffffffffffffffffffffffffff16815260200190815260200160002060060160008460ff1660ff16815260200190815260200160002060000160006101000a81548173ffffffffffffffffffffffffffffffffffffffff021916908373ffffffffffffffffffffffffffffffffffffffff160217905550615a72565b6000808060008673ffffffffffffffffffffffffffffffffffffffff1673ffffffffffffffffffffffffffffffffffffffff16815260200190815260200160002060060160008560ff1660ff1681526020019081526020016000206001016001815481106154e457fe5b9060005260206000200160009054906101000a900473ffffffffffffffffffffffffffffffffffffffff1673ffffffffffffffffffffffffffffffffffffffff1673ffffffffffffffffffffffffffffffffffffffff16815260200190815260200160002060060160008360ff1660ff1681526020019081526020016000206001018490806001815401808255809150509060018203906000526020600020016000909192909190916101000a81548173ffffffffffffffffffffffffffffffffffffffff021916908373ffffffffffffffffffffffffffffffffffffffff160217905550506000808473ffffffffffffffffffffffffffffffffffffffff1673ffffffffffffffffffffffffffffffffffffffff16815260200190815260200160002060060160008360ff1660ff16815260200190815260200160002060010160018154811061563157fe5b9060005260206000200160009054906101000a900473ffffffffffffffffffffffffffffffffffffffff1673ffffffffffffffffffffffffffffffffffffffff168473ffffffffffffffffffffffffffffffffffffffff167f68062c5925c4317adf3a7095478d28b33fd8b41458bc7620b61bc46bf1b24d826002856000808060008b73ffffffffffffffffffffffffffffffffffffffff1673ffffffffffffffffffffffffffffffffffffffff16815260200190815260200160002060060160008a60ff1660ff16815260200190815260200160002060010160018154811061571757fe5b9060005260206000200160009054906101000a900473ffffffffffffffffffffffffffffffffffffffff1673ffffffffffffffffffffffffffffffffffffffff1673ffffffffffffffffffffffffffffffffffffffff16815260200190815260200160002060060160008860ff1660ff16815260200190815260200160002060010180549050604051808460ff1681526020018360ff1660ff1681526020018260ff1660ff168152602001935050505060405180910390a38273ffffffffffffffffffffffffffffffffffffffff168473ffffffffffffffffffffffffffffffffffffffff167f68062c5925c4317adf3a7095478d28b33fd8b41458bc7620b61bc46bf1b24d826002856000808060008b73ffffffffffffffffffffffffffffffffffffffff1673ffffffffffffffffffffffffffffffffffffffff16815260200190815260200160002060060160008a60ff1660ff16815260200190815260200160002060010160018154811061588b57fe5b9060005260206000200160009054906101000a900473ffffffffffffffffffffffffffffffffffffffff1673ffffffffffffffffffffffffffffffffffffffff1673ffffffffffffffffffffffffffffffffffffffff16815260200190815260200160002060060160008860ff1660ff16815260200190815260200160002060010180549050600401604051808460ff1681526020018360ff1660ff1681526020018260ff1660ff168152602001935050505060405180910390a36000808473ffffffffffffffffffffffffffffffffffffffff1673ffffffffffffffffffffffffffffffffffffffff16815260200190815260200160002060060160008360ff1660ff1681526020019081526020016000206001016001815481106159ad57fe5b9060005260206000200160009054906101000a900473ffffffffffffffffffffffffffffffffffffffff166000808673ffffffffffffffffffffffffffffffffffffffff1673ffffffffffffffffffffffffffffffffffffffff16815260200190815260200160002060060160008460ff1660ff16815260200190815260200160002060000160006101000a81548173ffffffffffffffffffffffffffffffffffffffff021916908373ffffffffffffffffffffffffffffffffffffffff1602179055505b50505050565b6000806000869050600060018660ff161415615c19575b600115615c14576000808373ffffffffffffffffffffffffffffffffffffffff1673ffffffffffffffffffffffffffffffffffffffff16815260200190815260200160002060050160008660ff1660ff16815260200190815260200160002060020160009054906101000a900460ff1615615c02578673ffffffffffffffffffffffffffffffffffffffff168273ffffffffffffffffffffffffffffffffffffffff167ffc0cb63f8dbd6b20ceb84a3c5358a41576a1479e6ecd040b4b985525dc09a709600188604051808360ff1681526020018260ff1660ff1681526020019250505060405180910390a3600190506000808373ffffffffffffffffffffffffffffffffffffffff1673ffffffffffffffffffffffffffffffffffffffff16815260200190815260200160002060050160008660ff1660ff16815260200190815260200160002060000160009054906101000a900473ffffffffffffffffffffffffffffffffffffffff169150615c0f565b8181935093505050615da3565b615a8f565b615da0565b5b600115615d9f576000808373ffffffffffffffffffffffffffffffffffffffff1673ffffffffffffffffffffffffffffffffffffffff16815260200190815260200160002060060160008660ff1660ff16815260200190815260200160002060030160009054906101000a900460ff1615615d8d578673ffffffffffffffffffffffffffffffffffffffff168273ffffffffffffffffffffffffffffffffffffffff167ffc0cb63f8dbd6b20ceb84a3c5358a41576a1479e6ecd040b4b985525dc09a709600288604051808360ff1681526020018260ff1660ff1681526020019250505060405180910390a3600190506000808373ffffffffffffffffffffffffffffffffffffffff1673ffffffffffffffffffffffffffffffffffffffff16815260200190815260200160002060060160008660ff1660ff16815260200190815260200160002060000160009054906101000a900473ffffffffffffffffffffffffffffffffffffffff169150615d9a565b8181935093505050615da3565b615c1a565b5b50505b94509492505050565b604051806060016040528060008152602001600073ffffffffffffffffffffffffffffffffffffffff168152602001600081525090565b828054828255906000526020600020908101928215615e5c579160200282015b82811115615e5b5782518260006101000a81548173ffffffffffffffffffffffffffffffffffffffff021916908373ffffffffffffffffffffffffffffffffffffffff16021790555091602001919060010190615e03565b5b509050615e699190615e6d565b5090565b615ead91905b80821115615ea957600081816101000a81549073ffffffffffffffffffffffffffffffffffffffff021916905550600101615e73565b5090565b9056fe75736572206973206e6f74206578697374732e2052656769737465722066697273742ea265627a7a72315820b50eb0f801421a5f86e17c272b6035797f53698a76279009e12f386719bd1f4e64736f6c63430005100032",
  "source": "/*\r\n   ____                  _        _     _ _ _ _                 \r\n  / ___|_ __ _   _ _ __ | |_ ___ | |__ (_) | (_) ___  _ __  ___ \r\n | |   | '__| | | | '_ \\| __/ _ \\| '_ \\| | | | |/ _ \\| '_ \\/ __|\r\n | |___| |  | |_| | |_) | || (_) | |_) | | | | | (_) | | | \\__ \\\r\n  \\____|_|   \\__, | .__/ \\__\\___/|_.__/|_|_|_|_|\\___/|_| |_|___/\r\n             |___/|_|                                           \r\n\r\n    http://cryptobillions.io\r\n */\r\npragma solidity >=0.4.23 <0.6.0;\r\n\r\ncontract Cryptobillions {\r\n    \r\n    struct User {\r\n        uint id;\r\n        address referrer;\r\n        uint partnersCount;\r\n        \r\n        mapping(uint8 => bool) activeX3Levels;\r\n        mapping(uint8 => bool) activeX6Levels;\r\n        \r\n        mapping(uint8 => X3) x3Matrix;\r\n        mapping(uint8 => X6) x6Matrix;\r\n    }\r\n    \r\n    struct X3 {\r\n        address currentReferrer;\r\n        address[] referrals;\r\n        bool blocked;\r\n        uint reinvestCount;\r\n    }\r\n    \r\n    struct X6 {\r\n        address currentReferrer;\r\n        address[] firstLevelReferrals;\r\n        address[] secondLevelReferrals;\r\n        bool blocked;\r\n        uint reinvestCount;\r\n\r\n        address closedPart;\r\n    }\r\n\r\n    uint8 public constant LAST_LEVEL = 9;\r\n    \r\n    mapping(address => User) public users;\r\n    mapping(uint => address) public idToAddress;\r\n    mapping(uint => address) public userIds;\r\n    mapping(address => uint) public balances; \r\n\r\n    uint public lastUserId = 2;\r\n    address public owner;\r\n    \r\n    mapping(uint8 => uint) public levelPrice;\r\n    \r\n    event Registration(address indexed user, address indexed referrer, uint indexed userId, uint referrerId);\r\n    event Reinvest(address indexed user, address indexed currentReferrer, address indexed caller, uint8 matrix, uint8 level);\r\n    event Upgrade(address indexed user, address indexed referrer, uint8 matrix, uint8 level);\r\n    event NewUserPlace(address indexed user, address indexed referrer, uint8 matrix, uint8 level, uint8 place);\r\n    event MissedEthReceive(address indexed receiver, address indexed from, uint8 matrix, uint8 level);\r\n    event SentExtraEthDividends(address indexed from, address indexed receiver, uint8 matrix, uint8 level);\r\n    \r\n    \r\n    constructor(address ownerAddress) public {\r\n        levelPrice[1] = 0.045 ether;\r\n        for (uint8 i = 2; i <= LAST_LEVEL; i++) {\r\n            levelPrice[i] = levelPrice[i-1] * 2;\r\n        }\r\n        \r\n        owner = ownerAddress;\r\n        \r\n        User memory user = User({\r\n            id: 1,\r\n            referrer: address(0),\r\n            partnersCount: uint(0)\r\n        });\r\n        \r\n        users[ownerAddress] = user;\r\n        idToAddress[1] = ownerAddress;\r\n        \r\n        for (uint8 i = 1; i <= LAST_LEVEL; i++) {\r\n            users[ownerAddress].activeX3Levels[i] = true;\r\n            users[ownerAddress].activeX6Levels[i] = true;\r\n        }\r\n        \r\n        userIds[1] = ownerAddress;\r\n    }\r\n    \r\n    function() external payable {\r\n        if(msg.data.length == 0) {\r\n            return registration(msg.sender, owner);\r\n        }\r\n        \r\n        registration(msg.sender, bytesToAddress(msg.data));\r\n    }\r\n\r\n    function registrationExt(address referrerAddress) external payable {\r\n        registration(msg.sender, referrerAddress);\r\n    }\r\n    \r\n    function buyNewLevel(uint8 matrix, uint8 level) external payable {\r\n        require(isUserExists(msg.sender), \"user is not exists. Register first.\");\r\n        require(matrix == 1 || matrix == 2, \"invalid matrix\");\r\n        require(msg.value == levelPrice[level], \"invalid price\");\r\n        require(level > 1 && level <= LAST_LEVEL, \"invalid level\");\r\n\r\n        if (matrix == 1) {\r\n            require(!users[msg.sender].activeX3Levels[level], \"level already activated\");\r\n\r\n            if (users[msg.sender].x3Matrix[level-1].blocked) {\r\n                users[msg.sender].x3Matrix[level-1].blocked = false;\r\n            }\r\n    \r\n            address freeX3Referrer = findFreeX3Referrer(msg.sender, level);\r\n            users[msg.sender].x3Matrix[level].currentReferrer = freeX3Referrer;\r\n            users[msg.sender].activeX3Levels[level] = true;\r\n            updateX3Referrer(msg.sender, freeX3Referrer, level);\r\n            \r\n            emit Upgrade(msg.sender, freeX3Referrer, 1, level);\r\n\r\n        } else {\r\n            require(!users[msg.sender].activeX6Levels[level], \"level already activated\"); \r\n\r\n            if (users[msg.sender].x6Matrix[level-1].blocked) {\r\n                users[msg.sender].x6Matrix[level-1].blocked = false;\r\n            }\r\n\r\n            address freeX6Referrer = findFreeX6Referrer(msg.sender, level);\r\n            \r\n            users[msg.sender].activeX6Levels[level] = true;\r\n            updateX6Referrer(msg.sender, freeX6Referrer, level);\r\n            \r\n            emit Upgrade(msg.sender, freeX6Referrer, 2, level);\r\n        }\r\n    }    \r\n    \r\n    function registration(address userAddress, address referrerAddress) private {\r\n        require(msg.value == 0.09 ether, \"registration cost 0.09\");\r\n        require(!isUserExists(userAddress), \"user exists\");\r\n        require(isUserExists(referrerAddress), \"referrer not exists\");\r\n        \r\n        uint32 size;\r\n        assembly {\r\n            size := extcodesize(userAddress)\r\n        }\r\n        require(size == 0, \"cannot be a contract\");\r\n        \r\n        User memory user = User({\r\n            id: lastUserId,\r\n            referrer: referrerAddress,\r\n            partnersCount: 0\r\n        });\r\n        \r\n        users[userAddress] = user;\r\n        idToAddress[lastUserId] = userAddress;\r\n        \r\n        users[userAddress].referrer = referrerAddress;\r\n        \r\n        users[userAddress].activeX3Levels[1] = true; \r\n        users[userAddress].activeX6Levels[1] = true;\r\n        \r\n        \r\n        userIds[lastUserId] = userAddress;\r\n        lastUserId++;\r\n        \r\n        users[referrerAddress].partnersCount++;\r\n\r\n        address freeX3Referrer = findFreeX3Referrer(userAddress, 1);\r\n        users[userAddress].x3Matrix[1].currentReferrer = freeX3Referrer;\r\n        updateX3Referrer(userAddress, freeX3Referrer, 1);\r\n\r\n        updateX6Referrer(userAddress, findFreeX6Referrer(userAddress, 1), 1);\r\n        \r\n        emit Registration(userAddress, referrerAddress, users[userAddress].id, users[referrerAddress].id);\r\n    }\r\n    \r\n    function updateX3Referrer(address userAddress, address referrerAddress, uint8 level) private {\r\n        users[referrerAddress].x3Matrix[level].referrals.push(userAddress);\r\n\r\n        if (users[referrerAddress].x3Matrix[level].referrals.length < 3) {\r\n            emit NewUserPlace(userAddress, referrerAddress, 1, level, uint8(users[referrerAddress].x3Matrix[level].referrals.length));\r\n            return sendETHDividends(referrerAddress, userAddress, 1, level);\r\n        }\r\n        \r\n        emit NewUserPlace(userAddress, referrerAddress, 1, level, 3);\r\n        //close matrix\r\n        users[referrerAddress].x3Matrix[level].referrals = new address[](0);\r\n        if (!users[referrerAddress].activeX3Levels[level+1] && level != LAST_LEVEL) {\r\n            users[referrerAddress].x3Matrix[level].blocked = true;\r\n        }\r\n\r\n        //create new one by recursion\r\n        if (referrerAddress != owner) {\r\n            //check referrer active level\r\n            address freeReferrerAddress = findFreeX3Referrer(referrerAddress, level);\r\n            if (users[referrerAddress].x3Matrix[level].currentReferrer != freeReferrerAddress) {\r\n                users[referrerAddress].x3Matrix[level].currentReferrer = freeReferrerAddress;\r\n            }\r\n            \r\n            users[referrerAddress].x3Matrix[level].reinvestCount++;\r\n            emit Reinvest(referrerAddress, freeReferrerAddress, userAddress, 1, level);\r\n            updateX3Referrer(referrerAddress, freeReferrerAddress, level);\r\n        } else {\r\n            sendETHDividends(owner, userAddress, 1, level);\r\n            users[owner].x3Matrix[level].reinvestCount++;\r\n            emit Reinvest(owner, address(0), userAddress, 1, level);\r\n        }\r\n    }\r\n\r\n    function updateX6Referrer(address userAddress, address referrerAddress, uint8 level) private {\r\n        require(users[referrerAddress].activeX6Levels[level], \"500. Referrer level is inactive\");\r\n        \r\n        if (users[referrerAddress].x6Matrix[level].firstLevelReferrals.length < 2) {\r\n            users[referrerAddress].x6Matrix[level].firstLevelReferrals.push(userAddress);\r\n            emit NewUserPlace(userAddress, referrerAddress, 2, level, uint8(users[referrerAddress].x6Matrix[level].firstLevelReferrals.length));\r\n            \r\n            //set current level\r\n            users[userAddress].x6Matrix[level].currentReferrer = referrerAddress;\r\n\r\n            if (referrerAddress == owner) {\r\n                return sendETHDividends(referrerAddress, userAddress, 2, level);\r\n            }\r\n            \r\n            address ref = users[referrerAddress].x6Matrix[level].currentReferrer;            \r\n            users[ref].x6Matrix[level].secondLevelReferrals.push(userAddress); \r\n            \r\n            uint len = users[ref].x6Matrix[level].firstLevelReferrals.length;\r\n            \r\n            if ((len == 2) && \r\n                (users[ref].x6Matrix[level].firstLevelReferrals[0] == referrerAddress) &&\r\n                (users[ref].x6Matrix[level].firstLevelReferrals[1] == referrerAddress)) {\r\n                if (users[referrerAddress].x6Matrix[level].firstLevelReferrals.length == 1) {\r\n                    emit NewUserPlace(userAddress, ref, 2, level, 5);\r\n                } else {\r\n                    emit NewUserPlace(userAddress, ref, 2, level, 6);\r\n                }\r\n            }  else if ((len == 1 || len == 2) &&\r\n                    users[ref].x6Matrix[level].firstLevelReferrals[0] == referrerAddress) {\r\n                if (users[referrerAddress].x6Matrix[level].firstLevelReferrals.length == 1) {\r\n                    emit NewUserPlace(userAddress, ref, 2, level, 3);\r\n                } else {\r\n                    emit NewUserPlace(userAddress, ref, 2, level, 4);\r\n                }\r\n            } else if (len == 2 && users[ref].x6Matrix[level].firstLevelReferrals[1] == referrerAddress) {\r\n                if (users[referrerAddress].x6Matrix[level].firstLevelReferrals.length == 1) {\r\n                    emit NewUserPlace(userAddress, ref, 2, level, 5);\r\n                } else {\r\n                    emit NewUserPlace(userAddress, ref, 2, level, 6);\r\n                }\r\n            }\r\n\r\n            return updateX6ReferrerSecondLevel(userAddress, ref, level);\r\n        }\r\n        \r\n        users[referrerAddress].x6Matrix[level].secondLevelReferrals.push(userAddress);\r\n\r\n        if (users[referrerAddress].x6Matrix[level].closedPart != address(0)) {\r\n            if ((users[referrerAddress].x6Matrix[level].firstLevelReferrals[0] == \r\n                users[referrerAddress].x6Matrix[level].firstLevelReferrals[1]) &&\r\n                (users[referrerAddress].x6Matrix[level].firstLevelReferrals[0] ==\r\n                users[referrerAddress].x6Matrix[level].closedPart)) {\r\n\r\n                updateX6(userAddress, referrerAddress, level, true);\r\n                return updateX6ReferrerSecondLevel(userAddress, referrerAddress, level);\r\n            } else if (users[referrerAddress].x6Matrix[level].firstLevelReferrals[0] == \r\n                users[referrerAddress].x6Matrix[level].closedPart) {\r\n                updateX6(userAddress, referrerAddress, level, true);\r\n                return updateX6ReferrerSecondLevel(userAddress, referrerAddress, level);\r\n            } else {\r\n                updateX6(userAddress, referrerAddress, level, false);\r\n                return updateX6ReferrerSecondLevel(userAddress, referrerAddress, level);\r\n            }\r\n        }\r\n\r\n        if (users[referrerAddress].x6Matrix[level].firstLevelReferrals[1] == userAddress) {\r\n            updateX6(userAddress, referrerAddress, level, false);\r\n            return updateX6ReferrerSecondLevel(userAddress, referrerAddress, level);\r\n        } else if (users[referrerAddress].x6Matrix[level].firstLevelReferrals[0] == userAddress) {\r\n            updateX6(userAddress, referrerAddress, level, true);\r\n            return updateX6ReferrerSecondLevel(userAddress, referrerAddress, level);\r\n        }\r\n        \r\n        if (users[users[referrerAddress].x6Matrix[level].firstLevelReferrals[0]].x6Matrix[level].firstLevelReferrals.length <= \r\n            users[users[referrerAddress].x6Matrix[level].firstLevelReferrals[1]].x6Matrix[level].firstLevelReferrals.length) {\r\n            updateX6(userAddress, referrerAddress, level, false);\r\n        } else {\r\n            updateX6(userAddress, referrerAddress, level, true);\r\n        }\r\n        \r\n        updateX6ReferrerSecondLevel(userAddress, referrerAddress, level);\r\n    }\r\n\r\n    function updateX6(address userAddress, address referrerAddress, uint8 level, bool x2) private {\r\n        if (!x2) {\r\n            users[users[referrerAddress].x6Matrix[level].firstLevelReferrals[0]].x6Matrix[level].firstLevelReferrals.push(userAddress);\r\n            emit NewUserPlace(userAddress, users[referrerAddress].x6Matrix[level].firstLevelReferrals[0], 2, level, uint8(users[users[referrerAddress].x6Matrix[level].firstLevelReferrals[0]].x6Matrix[level].firstLevelReferrals.length));\r\n            emit NewUserPlace(userAddress, referrerAddress, 2, level, 2 + uint8(users[users[referrerAddress].x6Matrix[level].firstLevelReferrals[0]].x6Matrix[level].firstLevelReferrals.length));\r\n            //set current level\r\n            users[userAddress].x6Matrix[level].currentReferrer = users[referrerAddress].x6Matrix[level].firstLevelReferrals[0];\r\n        } else {\r\n            users[users[referrerAddress].x6Matrix[level].firstLevelReferrals[1]].x6Matrix[level].firstLevelReferrals.push(userAddress);\r\n            emit NewUserPlace(userAddress, users[referrerAddress].x6Matrix[level].firstLevelReferrals[1], 2, level, uint8(users[users[referrerAddress].x6Matrix[level].firstLevelReferrals[1]].x6Matrix[level].firstLevelReferrals.length));\r\n            emit NewUserPlace(userAddress, referrerAddress, 2, level, 4 + uint8(users[users[referrerAddress].x6Matrix[level].firstLevelReferrals[1]].x6Matrix[level].firstLevelReferrals.length));\r\n            //set current level\r\n            users[userAddress].x6Matrix[level].currentReferrer = users[referrerAddress].x6Matrix[level].firstLevelReferrals[1];\r\n        }\r\n    }\r\n    \r\n    function updateX6ReferrerSecondLevel(address userAddress, address referrerAddress, uint8 level) private {\r\n        if (users[referrerAddress].x6Matrix[level].secondLevelReferrals.length < 4) {\r\n            return sendETHDividends(referrerAddress, userAddress, 2, level);\r\n        }\r\n        \r\n        address[] memory x6 = users[users[referrerAddress].x6Matrix[level].currentReferrer].x6Matrix[level].firstLevelReferrals;\r\n        \r\n        if (x6.length == 2) {\r\n            if (x6[0] == referrerAddress ||\r\n                x6[1] == referrerAddress) {\r\n                users[users[referrerAddress].x6Matrix[level].currentReferrer].x6Matrix[level].closedPart = referrerAddress;\r\n            } else if (x6.length == 1) {\r\n                if (x6[0] == referrerAddress) {\r\n                    users[users[referrerAddress].x6Matrix[level].currentReferrer].x6Matrix[level].closedPart = referrerAddress;\r\n                }\r\n            }\r\n        }\r\n        \r\n        users[referrerAddress].x6Matrix[level].firstLevelReferrals = new address[](0);\r\n        users[referrerAddress].x6Matrix[level].secondLevelReferrals = new address[](0);\r\n        users[referrerAddress].x6Matrix[level].closedPart = address(0);\r\n\r\n        if (!users[referrerAddress].activeX6Levels[level+1] && level != LAST_LEVEL) {\r\n            users[referrerAddress].x6Matrix[level].blocked = true;\r\n        }\r\n\r\n        users[referrerAddress].x6Matrix[level].reinvestCount++;\r\n        \r\n        if (referrerAddress != owner) {\r\n            address freeReferrerAddress = findFreeX6Referrer(referrerAddress, level);\r\n\r\n            emit Reinvest(referrerAddress, freeReferrerAddress, userAddress, 2, level);\r\n            updateX6Referrer(referrerAddress, freeReferrerAddress, level);\r\n        } else {\r\n            emit Reinvest(owner, address(0), userAddress, 2, level);\r\n            sendETHDividends(owner, userAddress, 2, level);\r\n        }\r\n    }\r\n    \r\n    function findFreeX3Referrer(address userAddress, uint8 level) public view returns(address) {\r\n        while (true) {\r\n            if (users[users[userAddress].referrer].activeX3Levels[level]) {\r\n                return users[userAddress].referrer;\r\n            }\r\n            \r\n            userAddress = users[userAddress].referrer;\r\n        }\r\n    }\r\n    \r\n    function findFreeX6Referrer(address userAddress, uint8 level) public view returns(address) {\r\n        while (true) {\r\n            if (users[users[userAddress].referrer].activeX6Levels[level]) {\r\n                return users[userAddress].referrer;\r\n            }\r\n            \r\n            userAddress = users[userAddress].referrer;\r\n        }\r\n    }\r\n        \r\n    function usersActiveX3Levels(address userAddress, uint8 level) public view returns(bool) {\r\n        return users[userAddress].activeX3Levels[level];\r\n    }\r\n\r\n    function usersActiveX6Levels(address userAddress, uint8 level) public view returns(bool) {\r\n        return users[userAddress].activeX6Levels[level];\r\n    }\r\n\r\n    function usersX3Matrix(address userAddress, uint8 level) public view returns(address, address[] memory, bool) {\r\n        return (users[userAddress].x3Matrix[level].currentReferrer,\r\n                users[userAddress].x3Matrix[level].referrals,\r\n                users[userAddress].x3Matrix[level].blocked);\r\n    }\r\n\r\n    function usersX6Matrix(address userAddress, uint8 level) public view returns(address, address[] memory, address[] memory, bool, address) {\r\n        return (users[userAddress].x6Matrix[level].currentReferrer,\r\n                users[userAddress].x6Matrix[level].firstLevelReferrals,\r\n                users[userAddress].x6Matrix[level].secondLevelReferrals,\r\n                users[userAddress].x6Matrix[level].blocked,\r\n                users[userAddress].x6Matrix[level].closedPart);\r\n    }\r\n    \r\n    function isUserExists(address user) public view returns (bool) {\r\n        return (users[user].id != 0);\r\n    }\r\n\r\n    function findEthReceiver(address userAddress, address _from, uint8 matrix, uint8 level) private returns(address, bool) {\r\n        address receiver = userAddress;\r\n        bool isExtraDividends;\r\n        if (matrix == 1) {\r\n            while (true) {\r\n                if (users[receiver].x3Matrix[level].blocked) {\r\n                    emit MissedEthReceive(receiver, _from, 1, level);\r\n                    isExtraDividends = true;\r\n                    receiver = users[receiver].x3Matrix[level].currentReferrer;\r\n                } else {\r\n                    return (receiver, isExtraDividends);\r\n                }\r\n            }\r\n        } else {\r\n            while (true) {\r\n                if (users[receiver].x6Matrix[level].blocked) {\r\n                    emit MissedEthReceive(receiver, _from, 2, level);\r\n                    isExtraDividends = true;\r\n                    receiver = users[receiver].x6Matrix[level].currentReferrer;\r\n                } else {\r\n                    return (receiver, isExtraDividends);\r\n                }\r\n            }\r\n        }\r\n    }\r\n\r\n    function sendETHDividends(address userAddress, address _from, uint8 matrix, uint8 level) private {\r\n        (address receiver, bool isExtraDividends) = findEthReceiver(userAddress, _from, matrix, level);\r\n\r\n        if (!address(uint160(receiver)).send(levelPrice[level])) {\r\n            return address(uint160(receiver)).transfer(address(this).balance);\r\n        }\r\n        \r\n        if (isExtraDividends) {\r\n            emit SentExtraEthDividends(_from, receiver, matrix, level);\r\n        }\r\n    }\r\n    \r\n    function bytesToAddress(bytes memory bys) private pure returns (address addr) {\r\n        assembly {\r\n            addr := mload(add(bys, 20))\r\n        }\r\n    }\r\n}",
  "sourcePath": "/Users/epayco/Desktop/Sitios/crypto-b/contracts/Crytobillions.sol",
  "compiler": {
    "name": "solc",
    "version": "0.5.16+commit.9c3226ce.Emscripten.clang"
  },
  "schemaVersion": "3.2.3",
  "updatedAt": "2020-09-05T20:05:27.478Z",
  "networkType": "ethereum",
  "devdoc": {
    "methods": {}
  },
  "userdoc": {
    "methods": {}
  }
}